{
  "contractName": "cropregistration",
  "abi": [
    {
      "inputs": [],
      "stateMutability": "nonpayable",
      "type": "constructor"
    },
    {
      "inputs": [
        {
          "internalType": "address",
          "name": "",
          "type": "address"
        }
      ],
      "name": "fasal",
      "outputs": [
        {
          "internalType": "string",
          "name": "name",
          "type": "string"
        },
        {
          "internalType": "uint256",
          "name": "area",
          "type": "uint256"
        },
        {
          "internalType": "string",
          "name": "district",
          "type": "string"
        }
      ],
      "stateMutability": "view",
      "type": "function",
      "constant": true
    },
    {
      "inputs": [
        {
          "internalType": "uint256",
          "name": "",
          "type": "uint256"
        }
      ],
      "name": "haryanaDistricts",
      "outputs": [
        {
          "internalType": "string",
          "name": "",
          "type": "string"
        }
      ],
      "stateMutability": "view",
      "type": "function",
      "constant": true
    },
    {
      "inputs": [],
      "name": "owner",
      "outputs": [
        {
          "internalType": "address",
          "name": "",
          "type": "address"
        }
      ],
      "stateMutability": "view",
      "type": "function",
      "constant": true
    },
    {
      "inputs": [
        {
          "internalType": "string",
          "name": "",
          "type": "string"
        },
        {
          "internalType": "string",
          "name": "",
          "type": "string"
        }
      ],
      "name": "totalAreaByDistrict",
      "outputs": [
        {
          "internalType": "uint256",
          "name": "",
          "type": "uint256"
        }
      ],
      "stateMutability": "view",
      "type": "function",
      "constant": true
    },
    {
      "inputs": [
        {
          "internalType": "uint256",
          "name": "",
          "type": "uint256"
        }
      ],
      "name": "upaj",
      "outputs": [
        {
          "internalType": "string",
          "name": "name",
          "type": "string"
        },
        {
          "internalType": "uint256",
          "name": "area",
          "type": "uint256"
        },
        {
          "internalType": "string",
          "name": "district",
          "type": "string"
        }
      ],
      "stateMutability": "view",
      "type": "function",
      "constant": true
    },
    {
      "inputs": [
        {
          "internalType": "string",
          "name": "_name",
          "type": "string"
        },
        {
          "internalType": "uint256",
          "name": "_area",
          "type": "uint256"
        },
        {
          "internalType": "string",
          "name": "_district",
          "type": "string"
        }
      ],
      "name": "registerCrop",
      "outputs": [],
      "stateMutability": "nonpayable",
      "type": "function"
    },
    {
      "inputs": [
        {
          "internalType": "string",
          "name": "_district",
          "type": "string"
        },
        {
          "internalType": "string",
          "name": "_name",
          "type": "string"
        }
      ],
      "name": "getTotalAreaByDistrict",
      "outputs": [
        {
          "internalType": "uint256",
          "name": "",
          "type": "uint256"
        }
      ],
      "stateMutability": "view",
      "type": "function",
      "constant": true
    },
    {
      "inputs": [
        {
          "internalType": "string",
          "name": "_name",
          "type": "string"
        }
      ],
      "name": "estimateTotalProduce",
      "outputs": [
        {
          "internalType": "uint256",
          "name": "",
          "type": "uint256"
        }
      ],
      "stateMutability": "view",
      "type": "function",
      "constant": true
    }
  ],
  "bytecode": "0x6080604052604051806102c001604052806040518060400160405280600681526020017f416d62616c61000000000000000000000000000000000000000000000000000081525081526020016040518060400160405280600781526020017f42686977616e690000000000000000000000000000000000000000000000000081525081526020016040518060400160405280600d81526020017f436861726b68692044616472690000000000000000000000000000000000000081525081526020016040518060400160405280600981526020017f466172696461626164000000000000000000000000000000000000000000000081525081526020016040518060400160405280600981526020017f466174656861626164000000000000000000000000000000000000000000000081525081526020016040518060400160405280600881526020017f477572756772616d00000000000000000000000000000000000000000000000081525081526020016040518060400160405280600581526020017f486973617200000000000000000000000000000000000000000000000000000081525081526020016040518060400160405280600781526020017f4a68616a6a61720000000000000000000000000000000000000000000000000081525081526020016040518060400160405280600481526020017f4a696e640000000000000000000000000000000000000000000000000000000081525081526020016040518060400160405280600781526020017f4b61697468616c0000000000000000000000000000000000000000000000000081525081526020016040518060400160405280600681526020017f4b61726e616c000000000000000000000000000000000000000000000000000081525081526020016040518060400160405280600b81526020017f4b7572756b73686574726100000000000000000000000000000000000000000081525081526020016040518060400160405280600c81526020017f4d6168656e64726167617268000000000000000000000000000000000000000081525081526020016040518060400160405280600381526020017f4e7568000000000000000000000000000000000000000000000000000000000081525081526020016040518060400160405280600681526020017f50616c77616c000000000000000000000000000000000000000000000000000081525081526020016040518060400160405280600981526020017f50616e63686b756c61000000000000000000000000000000000000000000000081525081526020016040518060400160405280600781526020017f50616e697061740000000000000000000000000000000000000000000000000081525081526020016040518060400160405280600681526020017f526577617269000000000000000000000000000000000000000000000000000081525081526020016040518060400160405280600681526020017f526f6874616b000000000000000000000000000000000000000000000000000081525081526020016040518060400160405280600581526020017f536972736100000000000000000000000000000000000000000000000000000081525081526020016040518060400160405280600781526020017f536f6e697061740000000000000000000000000000000000000000000000000081525081526020016040518060400160405280600b81526020017f59616d756e616e6167617200000000000000000000000000000000000000000081525081525060039060166200053292919062000588565b503480156200054057600080fd5b5033600460006101000a81548173ffffffffffffffffffffffffffffffffffffffff021916908373ffffffffffffffffffffffffffffffffffffffff16021790555062000772565b828054828255906000526020600020908101928215620005dc579160200282015b82811115620005db578251829080519060200190620005ca929190620005ef565b5091602001919060010190620005a9565b5b509050620005eb919062000680565b5090565b828054620005fd906200070d565b90600052602060002090601f0160209004810192826200062157600085556200066d565b82601f106200063c57805160ff19168380011785556200066d565b828001600101855582156200066d579182015b828111156200066c5782518255916020019190600101906200064f565b5b5090506200067c9190620006a8565b5090565b5b80821115620006a457600081816200069a9190620006c7565b5060010162000681565b5090565b5b80821115620006c3576000816000905550600101620006a9565b5090565b508054620006d5906200070d565b6000825580601f10620006e957506200070a565b601f016020900490600052602060002090810190620007099190620006a8565b5b50565b600060028204905060018216806200072657607f821691505b602082108114156200073d576200073c62000743565b5b50919050565b7f4e487b7100000000000000000000000000000000000000000000000000000000600052602260045260246000fd5b6112ef80620007826000396000f3fe608060405234801561001057600080fd5b50600436106100885760003560e01c80638da5cb5b1161005b5780638da5cb5b1461013d578063db96cb731461015b578063ecd1a73a1461018b578063f51cca1e146101bb57610088565b806312707b6f1461008d5780633b1e650c146100bd5780634d9e87b6146100ef5780637271f2b81461010b575b600080fd5b6100a760048036038101906100a29190610b55565b6101eb565b6040516100b49190610f81565b60405180910390f35b6100d760048036038101906100d29190610aeb565b61023c565b6040516100e693929190610efc565b60405180910390f35b61010960048036038101906101049190610bc1565b610376565b005b61012560048036038101906101209190610c40565b61064d565b60405161013493929190610efc565b60405180910390f35b610145610797565b6040516101529190610ebf565b60405180910390f35b61017560048036038101906101709190610c40565b6107bd565b6040516101829190610eda565b60405180910390f35b6101a560048036038101906101a09190610b55565b610869565b6040516101b29190610f81565b60405180910390f35b6101d560048036038101906101d09190610b14565b6108ae565b6040516101e29190610f81565b60405180910390f35b60028280516020810182018051848252602083016020850120818352809550505050505081805160208101820180518482526020830160208501208183528095505050505050600091509150505481565b600060205280600052604060002060009150905080600001805461025f90611172565b80601f016020809104026020016040519081016040528092919081815260200182805461028b90611172565b80156102d85780601f106102ad576101008083540402835291602001916102d8565b820191906000526020600020905b8154815290600101906020018083116102bb57829003601f168201915b5050505050908060010154908060020180546102f390611172565b80601f016020809104026020016040519081016040528092919081815260200182805461031f90611172565b801561036c5780601f106103415761010080835404028352916020019161036c565b820191906000526020600020905b81548152906001019060200180831161034f57829003601f168201915b5050505050905083565b60405160200161038590610eaa565b60405160208183030381529060405280519060200120836040516020016103ac9190610e93565b6040516020818303038152906040528051906020012014610402576040517f08c379a00000000000000000000000000000000000000000000000000000000081526004016103f990610f41565b60405180910390fd5b6000805b60038054905081101561049657828051906020012060038281548110610455577f4e487b7100000000000000000000000000000000000000000000000000000000600052603260045260246000fd5b9060005260206000200160405161046c9190610e7c565b604051809103902014156104835760019150610496565b808061048e906111a4565b915050610406565b5060011515811515146104de576040517f08c379a00000000000000000000000000000000000000000000000000000000081526004016104d590610f61565b60405180910390fd5b60006040518060600160405280868152602001858152602001848152509050806000803373ffffffffffffffffffffffffffffffffffffffff1673ffffffffffffffffffffffffffffffffffffffff16815260200190815260200160002060008201518160000190805190602001906105589291906109b6565b5060208201518160010155604082015181600201908051906020019061057f9291906109b6565b50905050600181908060018154018082558091505060019003906000526020600020906003020160009091909190915060008201518160000190805190602001906105cb9291906109b6565b506020820151816001015560408201518160020190805190602001906105f29291906109b6565b505050836002846040516106069190610e93565b9081526020016040518091039020866040516106229190610e93565b9081526020016040518091039020600082825461063f9190611044565b925050819055505050505050565b6001818154811061065d57600080fd5b906000526020600020906003020160009150905080600001805461068090611172565b80601f01602080910402602001604051908101604052809291908181526020018280546106ac90611172565b80156106f95780601f106106ce576101008083540402835291602001916106f9565b820191906000526020600020905b8154815290600101906020018083116106dc57829003601f168201915b50505050509080600101549080600201805461071490611172565b80601f016020809104026020016040519081016040528092919081815260200182805461074090611172565b801561078d5780601f106107625761010080835404028352916020019161078d565b820191906000526020600020905b81548152906001019060200180831161077057829003601f168201915b5050505050905083565b600460009054906101000a900473ffffffffffffffffffffffffffffffffffffffff1681565b600381815481106107cd57600080fd5b9060005260206000200160009150905080546107e890611172565b80601f016020809104026020016040519081016040528092919081815260200182805461081490611172565b80156108615780601f1061083657610100808354040283529160200191610861565b820191906000526020600020905b81548152906001019060200180831161084457829003601f168201915b505050505081565b600060028360405161087b9190610e93565b9081526020016040518091039020826040516108979190610e93565b908152602001604051809103902054905092915050565b6000806000905060005b6001805490508110156109a057838051906020012060018281548110610907577f4e487b7100000000000000000000000000000000000000000000000000000000600052603260045260246000fd5b90600052602060002090600302016000016040516109259190610e7c565b6040518091039020141561098d576001818154811061096d577f4e487b7100000000000000000000000000000000000000000000000000000000600052603260045260246000fd5b9060005260206000209060030201600101548261098a9190611044565b91505b8080610998906111a4565b9150506108b8565b506018816109ae919061109a565b915050919050565b8280546109c290611172565b90600052602060002090601f0160209004810192826109e45760008555610a2b565b82601f106109fd57805160ff1916838001178555610a2b565b82800160010185558215610a2b579182015b82811115610a2a578251825591602001919060010190610a0f565b5b509050610a389190610a3c565b5090565b5b80821115610a55576000816000905550600101610a3d565b5090565b6000610a6c610a6784610fcd565b610f9c565b905082815260208101848484011115610a8457600080fd5b610a8f848285611130565b509392505050565b600081359050610aa68161128b565b92915050565b600082601f830112610abd57600080fd5b8135610acd848260208601610a59565b91505092915050565b600081359050610ae5816112a2565b92915050565b600060208284031215610afd57600080fd5b6000610b0b84828501610a97565b91505092915050565b600060208284031215610b2657600080fd5b600082013567ffffffffffffffff811115610b4057600080fd5b610b4c84828501610aac565b91505092915050565b60008060408385031215610b6857600080fd5b600083013567ffffffffffffffff811115610b8257600080fd5b610b8e85828601610aac565b925050602083013567ffffffffffffffff811115610bab57600080fd5b610bb785828601610aac565b9150509250929050565b600080600060608486031215610bd657600080fd5b600084013567ffffffffffffffff811115610bf057600080fd5b610bfc86828701610aac565b9350506020610c0d86828701610ad6565b925050604084013567ffffffffffffffff811115610c2a57600080fd5b610c3686828701610aac565b9150509250925092565b600060208284031215610c5257600080fd5b6000610c6084828501610ad6565b91505092915050565b610c72816110f4565b82525050565b60008154610c8581611172565b610c8f818661101d565b94506001821660008114610caa5760018114610cbb57610cee565b60ff19831686528186019350610cee565b610cc485610ffd565b60005b83811015610ce657815481890152600182019150602081019050610cc7565b838801955050505b50505092915050565b6000610d0282611012565b610d0c8185611028565b9350610d1c81856020860161113f565b610d258161127a565b840191505092915050565b6000610d3b82611012565b610d458185611039565b9350610d5581856020860161113f565b80840191505092915050565b6000610d6e602283611028565b91507f4f6e6c792077686561742063726f70732063616e20626520726567697374657260008301527f65640000000000000000000000000000000000000000000000000000000000006020830152604082019050919050565b6000610dd4603e83611028565b91507f496e76616c69642064697374726963742e20506c656173652070726f7669646560008301527f20612076616c69642064697374726963742066726f6d2048617279616e6100006020830152604082019050919050565b6000610e3a600583611039565b91507f77686561740000000000000000000000000000000000000000000000000000006000830152600582019050919050565b610e7681611126565b82525050565b6000610e888284610c78565b915081905092915050565b6000610e9f8284610d30565b915081905092915050565b6000610eb582610e2d565b9150819050919050565b6000602082019050610ed46000830184610c69565b92915050565b60006020820190508181036000830152610ef48184610cf7565b905092915050565b60006060820190508181036000830152610f168186610cf7565b9050610f256020830185610e6d565b8181036040830152610f378184610cf7565b9050949350505050565b60006020820190508181036000830152610f5a81610d61565b9050919050565b60006020820190508181036000830152610f7a81610dc7565b9050919050565b6000602082019050610f966000830184610e6d565b92915050565b6000604051905081810181811067ffffffffffffffff82111715610fc357610fc261124b565b5b8060405250919050565b600067ffffffffffffffff821115610fe857610fe761124b565b5b601f19601f8301169050602081019050919050565b60008190508160005260206000209050919050565b600081519050919050565b600081905092915050565b600082825260208201905092915050565b600081905092915050565b600061104f82611126565b915061105a83611126565b9250827fffffffffffffffffffffffffffffffffffffffffffffffffffffffffffffffff0382111561108f5761108e6111ed565b5b828201905092915050565b60006110a582611126565b91506110b083611126565b9250817fffffffffffffffffffffffffffffffffffffffffffffffffffffffffffffffff04831182151516156110e9576110e86111ed565b5b828202905092915050565b60006110ff82611106565b9050919050565b600073ffffffffffffffffffffffffffffffffffffffff82169050919050565b6000819050919050565b82818337600083830152505050565b60005b8381101561115d578082015181840152602081019050611142565b8381111561116c576000848401525b50505050565b6000600282049050600182168061118a57607f821691505b6020821081141561119e5761119d61121c565b5b50919050565b60006111af82611126565b91507fffffffffffffffffffffffffffffffffffffffffffffffffffffffffffffffff8214156111e2576111e16111ed565b5b600182019050919050565b7f4e487b7100000000000000000000000000000000000000000000000000000000600052601160045260246000fd5b7f4e487b7100000000000000000000000000000000000000000000000000000000600052602260045260246000fd5b7f4e487b7100000000000000000000000000000000000000000000000000000000600052604160045260246000fd5b6000601f19601f8301169050919050565b611294816110f4565b811461129f57600080fd5b50565b6112ab81611126565b81146112b657600080fd5b5056fea26469706673582212204f7f7231b9c3314af7a3fadb59539579feccf5e36606b371032d6c78351a6c6164736f6c63430008000033",
  "immutableReferences": {},
  "source": "// SPDX-License-Identifier: MIT\n\npragma solidity ^0.8.0;\n\ncontract cropregistration {\n    struct Crop {\n        string name;\n        uint area;\n        string district;\n    }\n\n    mapping(address => Crop) public fasal;\n    Crop[] public upaj;\n\n    mapping(string => mapping(string => uint)) public totalAreaByDistrict;\n\n    string[] public haryanaDistricts = [\"Ambala\", \"Bhiwani\", \"Charkhi Dadri\", \"Faridabad\", \"Fatehabad\", \"Gurugram\", \"Hisar\", \"Jhajjar\", \"Jind\", \"Kaithal\", \"Karnal\", \"Kurukshetra\", \"Mahendragarh\", \"Nuh\", \"Palwal\", \"Panchkula\", \"Panipat\", \"Rewari\", \"Rohtak\", \"Sirsa\", \"Sonipat\", \"Yamunanagar\"];\n\n    address public owner;\n\n    modifier onlyOwner() {\n        require(msg.sender == owner, \"Only the owner can call this function\");\n        _;\n    }\n\n    constructor() {\n        owner = msg.sender;\n    }\n\n    function registerCrop(string memory _name, uint _area, string memory _district) public {\n        require(keccak256(abi.encodePacked(_name)) == keccak256(abi.encodePacked(\"wheat\")), \"Only wheat crops can be registered\");\n\n        bool isValidDistrict = false;\n        for(uint256 i = 0; i < haryanaDistricts.length; i++) {\n            if(keccak256(bytes(haryanaDistricts[i])) == keccak256(bytes(_district))) {\n                isValidDistrict = true;\n                break;\n            }\n        }\n        require(isValidDistrict == true, \"Invalid district. Please provide a valid district from Haryana\");\n\n        Crop memory newCrop = Crop(_name, _area, _district);\n        fasal[msg.sender] = newCrop;\n        upaj.push(newCrop);\n        totalAreaByDistrict[_district][_name] += _area;\n    }\n\n    function getTotalAreaByDistrict(string memory _district, string memory _name) public view returns (uint) {\n        return totalAreaByDistrict[_district][_name];\n    }\n\n    function estimateTotalProduce(string memory _name) public view returns (uint) {\n        uint totalArea = 0;\n        for (uint i = 0; i < upaj.length; i++) {\n            if (keccak256(bytes(upaj[i].name)) == keccak256(bytes(_name))) {\n                totalArea += upaj[i].area;\n            }\n        }\n        return totalArea * 24;\n    }\n\n}\n",
  "sourcePath": "C:\\Users\\Shreya Sheoran\\Downloads\\Agriculture\\contracts\\cropregistration.sol",
  "compiler": {
    "name": "solc",
    "version": "0.8.0+commit.c7dfd78e.Emscripten.clang"
  },
  "schemaVersion": "3.4.12",
  "updatedAt": "2023-05-04T05:29:46.675Z",
  "networkType": "ethereum",
  "devdoc": {
    "kind": "dev",
    "methods": {},
    "version": 1
  },
  "userdoc": {
    "kind": "user",
    "methods": {},
    "version": 1
  }
}