{
  "contractName": "registration",
  "abi": [
    {
      "inputs": [],
      "stateMutability": "nonpayable",
      "type": "constructor"
    },
    {
      "inputs": [
        {
          "internalType": "address",
          "name": "",
          "type": "address"
        }
      ],
      "name": "fasal",
      "outputs": [
        {
          "internalType": "string",
          "name": "name",
          "type": "string"
        },
        {
          "internalType": "uint256",
          "name": "area",
          "type": "uint256"
        },
        {
          "internalType": "string",
          "name": "district",
          "type": "string"
        }
      ],
      "stateMutability": "view",
      "type": "function"
    },
    {
      "inputs": [
        {
          "internalType": "uint256",
          "name": "",
          "type": "uint256"
        }
      ],
      "name": "haryanaDistricts",
      "outputs": [
        {
          "internalType": "string",
          "name": "",
          "type": "string"
        }
      ],
      "stateMutability": "view",
      "type": "function"
    },
    {
      "inputs": [],
      "name": "owner",
      "outputs": [
        {
          "internalType": "address",
          "name": "",
          "type": "address"
        }
      ],
      "stateMutability": "view",
      "type": "function"
    },
    {
      "inputs": [
        {
          "internalType": "string",
          "name": "",
          "type": "string"
        },
        {
          "internalType": "string",
          "name": "",
          "type": "string"
        }
      ],
      "name": "totalAreaByDistrict",
      "outputs": [
        {
          "internalType": "uint256",
          "name": "",
          "type": "uint256"
        }
      ],
      "stateMutability": "view",
      "type": "function"
    },
    {
      "inputs": [
        {
          "internalType": "uint256",
          "name": "",
          "type": "uint256"
        }
      ],
      "name": "upaj",
      "outputs": [
        {
          "internalType": "string",
          "name": "name",
          "type": "string"
        },
        {
          "internalType": "uint256",
          "name": "area",
          "type": "uint256"
        },
        {
          "internalType": "string",
          "name": "district",
          "type": "string"
        }
      ],
      "stateMutability": "view",
      "type": "function"
    },
    {
      "inputs": [
        {
          "internalType": "string",
          "name": "_name",
          "type": "string"
        },
        {
          "internalType": "uint256",
          "name": "_area",
          "type": "uint256"
        },
        {
          "internalType": "string",
          "name": "_district",
          "type": "string"
        }
      ],
      "name": "registerCrop",
      "outputs": [],
      "stateMutability": "nonpayable",
      "type": "function"
    },
    {
      "inputs": [
        {
          "internalType": "string",
          "name": "_district",
          "type": "string"
        },
        {
          "internalType": "string",
          "name": "_name",
          "type": "string"
        }
      ],
      "name": "getTotalAreaByDistrict",
      "outputs": [
        {
          "internalType": "uint256",
          "name": "",
          "type": "uint256"
        }
      ],
      "stateMutability": "view",
      "type": "function"
    },
    {
      "inputs": [
        {
          "internalType": "string",
          "name": "_name",
          "type": "string"
        }
      ],
      "name": "estimateTotalProduce",
      "outputs": [
        {
          "internalType": "uint256",
          "name": "",
          "type": "uint256"
        }
      ],
      "stateMutability": "view",
      "type": "function"
    },
    {
      "inputs": [
        {
          "internalType": "string",
          "name": "_district",
          "type": "string"
        },
        {
          "internalType": "string",
          "name": "_name",
          "type": "string"
        }
      ],
      "name": "estimateProduce",
      "outputs": [
        {
          "internalType": "uint256",
          "name": "",
          "type": "uint256"
        }
      ],
      "stateMutability": "view",
      "type": "function"
    }
  ],
  "bytecode": "0x6080604052604051806102c001604052806040518060400160405280600681526020017f416d62616c61000000000000000000000000000000000000000000000000000081525081526020016040518060400160405280600781526020017f42686977616e690000000000000000000000000000000000000000000000000081525081526020016040518060400160405280600d81526020017f436861726b68692044616472690000000000000000000000000000000000000081525081526020016040518060400160405280600981526020017f466172696461626164000000000000000000000000000000000000000000000081525081526020016040518060400160405280600981526020017f466174656861626164000000000000000000000000000000000000000000000081525081526020016040518060400160405280600881526020017f477572756772616d00000000000000000000000000000000000000000000000081525081526020016040518060400160405280600581526020017f486973617200000000000000000000000000000000000000000000000000000081525081526020016040518060400160405280600781526020017f4a68616a6a61720000000000000000000000000000000000000000000000000081525081526020016040518060400160405280600481526020017f4a696e640000000000000000000000000000000000000000000000000000000081525081526020016040518060400160405280600781526020017f4b61697468616c0000000000000000000000000000000000000000000000000081525081526020016040518060400160405280600681526020017f4b61726e616c000000000000000000000000000000000000000000000000000081525081526020016040518060400160405280600b81526020017f4b7572756b73686574726100000000000000000000000000000000000000000081525081526020016040518060400160405280600c81526020017f4d6168656e64726167617268000000000000000000000000000000000000000081525081526020016040518060400160405280600381526020017f4e7568000000000000000000000000000000000000000000000000000000000081525081526020016040518060400160405280600681526020017f50616c77616c000000000000000000000000000000000000000000000000000081525081526020016040518060400160405280600981526020017f50616e63686b756c61000000000000000000000000000000000000000000000081525081526020016040518060400160405280600781526020017f50616e697061740000000000000000000000000000000000000000000000000081525081526020016040518060400160405280600681526020017f526577617269000000000000000000000000000000000000000000000000000081525081526020016040518060400160405280600681526020017f526f6874616b000000000000000000000000000000000000000000000000000081525081526020016040518060400160405280600581526020017f536972736100000000000000000000000000000000000000000000000000000081525081526020016040518060400160405280600781526020017f536f6e697061740000000000000000000000000000000000000000000000000081525081526020016040518060400160405280600b81526020017f59616d756e616e6167617200000000000000000000000000000000000000000081525081525060039060166200053292919062000588565b503480156200054057600080fd5b5033600460006101000a81548173ffffffffffffffffffffffffffffffffffffffff021916908373ffffffffffffffffffffffffffffffffffffffff16021790555062000772565b828054828255906000526020600020908101928215620005dc579160200282015b82811115620005db578251829080519060200190620005ca929190620005ef565b5091602001919060010190620005a9565b5b509050620005eb919062000680565b5090565b828054620005fd906200070d565b90600052602060002090601f0160209004810192826200062157600085556200066d565b82601f106200063c57805160ff19168380011785556200066d565b828001600101855582156200066d579182015b828111156200066c5782518255916020019190600101906200064f565b5b5090506200067c9190620006a8565b5090565b5b80821115620006a457600081816200069a9190620006c7565b5060010162000681565b5090565b5b80821115620006c3576000816000905550600101620006a9565b5090565b508054620006d5906200070d565b6000825580601f10620006e957506200070a565b601f016020900490600052602060002090810190620007099190620006a8565b5b50565b600060028204905060018216806200072657607f821691505b602082108114156200073d576200073c62000743565b5b50919050565b7f4e487b7100000000000000000000000000000000000000000000000000000000600052602260045260246000fd5b611bb680620007826000396000f3fe608060405234801561001057600080fd5b50600436106100935760003560e01c80638da5cb5b116100665780638da5cb5b14610148578063c1416dc714610166578063db96cb7314610196578063ecd1a73a146101c6578063f51cca1e146101f657610093565b806312707b6f146100985780633b1e650c146100c85780634d9e87b6146100fa5780637271f2b814610116575b600080fd5b6100b260048036038101906100ad919061141c565b610226565b6040516100bf9190611848565b60405180910390f35b6100e260048036038101906100dd91906113b2565b610277565b6040516100f1939291906117c3565b60405180910390f35b610114600480360381019061010f9190611488565b6103b1565b005b610130600480360381019061012b9190611507565b610688565b60405161013f939291906117c3565b60405180910390f35b6101506107d2565b60405161015d9190611786565b60405180910390f35b610180600480360381019061017b919061141c565b6107f8565b60405161018d9190611848565b60405180910390f35b6101b060048036038101906101ab9190611507565b611084565b6040516101bd91906117a1565b60405180910390f35b6101e060048036038101906101db919061141c565b611130565b6040516101ed9190611848565b60405180910390f35b610210600480360381019061020b91906113db565b611175565b60405161021d9190611848565b60405180910390f35b60028280516020810182018051848252602083016020850120818352809550505050505081805160208101820180518482526020830160208501208183528095505050505050600091509150505481565b600060205280600052604060002060009150905080600001805461029a90611a39565b80601f01602080910402602001604051908101604052809291908181526020018280546102c690611a39565b80156103135780601f106102e857610100808354040283529160200191610313565b820191906000526020600020905b8154815290600101906020018083116102f657829003601f168201915b50505050509080600101549080600201805461032e90611a39565b80601f016020809104026020016040519081016040528092919081815260200182805461035a90611a39565b80156103a75780601f1061037c576101008083540402835291602001916103a7565b820191906000526020600020905b81548152906001019060200180831161038a57829003601f168201915b5050505050905083565b6040516020016103c090611771565b60405160208183030381529060405280519060200120836040516020016103e7919061175a565b604051602081830303815290604052805190602001201461043d576040517f08c379a000000000000000000000000000000000000000000000000000000000815260040161043490611808565b60405180910390fd5b6000805b6003805490508110156104d157828051906020012060038281548110610490577f4e487b7100000000000000000000000000000000000000000000000000000000600052603260045260246000fd5b906000526020600020016040516104a79190611743565b604051809103902014156104be57600191506104d1565b80806104c990611a6b565b915050610441565b506001151581151514610519576040517f08c379a000000000000000000000000000000000000000000000000000000000815260040161051090611828565b60405180910390fd5b60006040518060600160405280868152602001858152602001848152509050806000803373ffffffffffffffffffffffffffffffffffffffff1673ffffffffffffffffffffffffffffffffffffffff168152602001908152602001600020600082015181600001908051906020019061059392919061127d565b506020820151816001015560408201518160020190805190602001906105ba92919061127d565b509050506001819080600181540180825580915050600190039060005260206000209060030201600090919091909150600082015181600001908051906020019061060692919061127d565b5060208201518160010155604082015181600201908051906020019061062d92919061127d565b50505083600284604051610641919061175a565b90815260200160405180910390208660405161065d919061175a565b9081526020016040518091039020600082825461067a919061190b565b925050819055505050505050565b6001818154811061069857600080fd5b90600052602060002090600302016000915090508060000180546106bb90611a39565b80601f01602080910402602001604051908101604052809291908181526020018280546106e790611a39565b80156107345780601f1061070957610100808354040283529160200191610734565b820191906000526020600020905b81548152906001019060200180831161071757829003601f168201915b50505050509080600101549080600201805461074f90611a39565b80601f016020809104026020016040519081016040528092919081815260200182805461077b90611a39565b80156107c85780601f1061079d576101008083540402835291602001916107c8565b820191906000526020600020905b8154815290600101906020018083116107ab57829003601f168201915b5050505050905083565b600460009054906101000a900473ffffffffffffffffffffffffffffffffffffffff1681565b60008060028460405161080b919061175a565b908152602001604051809103902083604051610827919061175a565b90815260200160405180910390205490506040518060400160405280600581526020017f48697361720000000000000000000000000000000000000000000000000000008152508051906020012084805190602001201415610898576016816108909190611961565b91505061107e565b6040518060400160405280600981526020017f50616e63686b756c61000000000000000000000000000000000000000000000081525080519060200120848051906020012014156108f8576016816108f09190611961565b91505061107e565b6040518060400160405280600b81526020017f59616d756e616e616761720000000000000000000000000000000000000000008152508051906020012084805190602001201415610958576016816109509190611961565b91505061107e565b6040518060400160405280600681526020017f416d62616c61000000000000000000000000000000000000000000000000000081525080519060200120848051906020012014156109b8576016816109b09190611961565b91505061107e565b6040518060400160405280600781526020017f4a68616a6a6172000000000000000000000000000000000000000000000000008152508051906020012084805190602001201415610a1857601681610a109190611961565b91505061107e565b6040518060400160405280600881526020017f477572756772616d0000000000000000000000000000000000000000000000008152508051906020012084805190602001201415610a7857601681610a709190611961565b91505061107e565b6040518060400160405280600681526020017f52657761726900000000000000000000000000000000000000000000000000008152508051906020012084805190602001201415610ad857601681610ad09190611961565b91505061107e565b6040518060400160405280600681526020017f526f6874616b00000000000000000000000000000000000000000000000000008152508051906020012084805190602001201415610b3857601681610b309190611961565b91505061107e565b6040518060400160405280600681526020017f50616c77616c00000000000000000000000000000000000000000000000000008152508051906020012084805190602001201415610b9857601681610b909190611961565b91505061107e565b6040518060400160405280600481526020017f4a696e64000000000000000000000000000000000000000000000000000000008152508051906020012084805190602001201415610bf857601681610bf09190611961565b91505061107e565b6040518060400160405280600981526020017f46617465686162616400000000000000000000000000000000000000000000008152508051906020012084805190602001201415610c5857601681610c509190611961565b91505061107e565b6040518060400160405280600c81526020017f4d6168656e6472616761726800000000000000000000000000000000000000008152508051906020012084805190602001201415610cb857601681610cb09190611961565b91505061107e565b6040518060400160405280600b81526020017f4b7572756b7368657472610000000000000000000000000000000000000000008152508051906020012084805190602001201415610d1857601981610d109190611961565b91505061107e565b6040518060400160405280600681526020017f4b61726e616c00000000000000000000000000000000000000000000000000008152508051906020012084805190602001201415610d7857601981610d709190611961565b91505061107e565b6040518060400160405280600781526020017f50616e69706174000000000000000000000000000000000000000000000000008152508051906020012084805190602001201415610dd857601981610dd09190611961565b91505061107e565b6040518060400160405280600781526020017f536f6e69706174000000000000000000000000000000000000000000000000008152508051906020012084805190602001201415610e3857601981610e309190611961565b91505061107e565b6040518060400160405280600981526020017f46617269646162616400000000000000000000000000000000000000000000008152508051906020012084805190602001201415610e9857601981610e909190611961565b91505061107e565b6040518060400160405280600781526020017f4b61697468616c000000000000000000000000000000000000000000000000008152508051906020012084805190602001201415610ef857601981610ef09190611961565b91505061107e565b6040518060400160405280600381526020017f4e756800000000000000000000000000000000000000000000000000000000008152508051906020012084805190602001201415610f5857601481610f509190611961565b91505061107e565b6040518060400160405280600781526020017f42686977616e69000000000000000000000000000000000000000000000000008152508051906020012084805190602001201415610fb857601181610fb09190611961565b91505061107e565b6040518060400160405280600d81526020017f436861726b6869204461647269000000000000000000000000000000000000008152508051906020012084805190602001201415611018576011816110109190611961565b91505061107e565b6040518060400160405280600581526020017f53697273610000000000000000000000000000000000000000000000000000008152508051906020012084805190602001201415611078576018816110709190611961565b91505061107e565b60009150505b92915050565b6003818154811061109457600080fd5b9060005260206000200160009150905080546110af90611a39565b80601f01602080910402602001604051908101604052809291908181526020018280546110db90611a39565b80156111285780601f106110fd57610100808354040283529160200191611128565b820191906000526020600020905b81548152906001019060200180831161110b57829003601f168201915b505050505081565b6000600283604051611142919061175a565b90815260200160405180910390208260405161115e919061175a565b908152602001604051809103902054905092915050565b6000806000905060005b600180549050811015611267578380519060200120600182815481106111ce577f4e487b7100000000000000000000000000000000000000000000000000000000600052603260045260246000fd5b90600052602060002090600302016000016040516111ec9190611743565b604051809103902014156112545760018181548110611234577f4e487b7100000000000000000000000000000000000000000000000000000000600052603260045260246000fd5b90600052602060002090600302016001015482611251919061190b565b91505b808061125f90611a6b565b91505061117f565b506018816112759190611961565b915050919050565b82805461128990611a39565b90600052602060002090601f0160209004810192826112ab57600085556112f2565b82601f106112c457805160ff19168380011785556112f2565b828001600101855582156112f2579182015b828111156112f15782518255916020019190600101906112d6565b5b5090506112ff9190611303565b5090565b5b8082111561131c576000816000905550600101611304565b5090565b600061133361132e84611894565b611863565b90508281526020810184848401111561134b57600080fd5b6113568482856119f7565b509392505050565b60008135905061136d81611b52565b92915050565b600082601f83011261138457600080fd5b8135611394848260208601611320565b91505092915050565b6000813590506113ac81611b69565b92915050565b6000602082840312156113c457600080fd5b60006113d28482850161135e565b91505092915050565b6000602082840312156113ed57600080fd5b600082013567ffffffffffffffff81111561140757600080fd5b61141384828501611373565b91505092915050565b6000806040838503121561142f57600080fd5b600083013567ffffffffffffffff81111561144957600080fd5b61145585828601611373565b925050602083013567ffffffffffffffff81111561147257600080fd5b61147e85828601611373565b9150509250929050565b60008060006060848603121561149d57600080fd5b600084013567ffffffffffffffff8111156114b757600080fd5b6114c386828701611373565b93505060206114d48682870161139d565b925050604084013567ffffffffffffffff8111156114f157600080fd5b6114fd86828701611373565b9150509250925092565b60006020828403121561151957600080fd5b60006115278482850161139d565b91505092915050565b611539816119bb565b82525050565b6000815461154c81611a39565b61155681866118e4565b945060018216600081146115715760018114611582576115b5565b60ff198316865281860193506115b5565b61158b856118c4565b60005b838110156115ad5781548189015260018201915060208101905061158e565b838801955050505b50505092915050565b60006115c9826118d9565b6115d381856118ef565b93506115e3818560208601611a06565b6115ec81611b41565b840191505092915050565b6000611602826118d9565b61160c8185611900565b935061161c818560208601611a06565b80840191505092915050565b60006116356022836118ef565b91507f4f6e6c792077686561742063726f70732063616e20626520726567697374657260008301527f65640000000000000000000000000000000000000000000000000000000000006020830152604082019050919050565b600061169b603e836118ef565b91507f496e76616c69642064697374726963742e20506c656173652070726f7669646560008301527f20612076616c69642064697374726963742066726f6d2048617279616e6100006020830152604082019050919050565b6000611701600583611900565b91507f77686561740000000000000000000000000000000000000000000000000000006000830152600582019050919050565b61173d816119ed565b82525050565b600061174f828461153f565b915081905092915050565b600061176682846115f7565b915081905092915050565b600061177c826116f4565b9150819050919050565b600060208201905061179b6000830184611530565b92915050565b600060208201905081810360008301526117bb81846115be565b905092915050565b600060608201905081810360008301526117dd81866115be565b90506117ec6020830185611734565b81810360408301526117fe81846115be565b9050949350505050565b6000602082019050818103600083015261182181611628565b9050919050565b600060208201905081810360008301526118418161168e565b9050919050565b600060208201905061185d6000830184611734565b92915050565b6000604051905081810181811067ffffffffffffffff8211171561188a57611889611b12565b5b8060405250919050565b600067ffffffffffffffff8211156118af576118ae611b12565b5b601f19601f8301169050602081019050919050565b60008190508160005260206000209050919050565b600081519050919050565b600081905092915050565b600082825260208201905092915050565b600081905092915050565b6000611916826119ed565b9150611921836119ed565b9250827fffffffffffffffffffffffffffffffffffffffffffffffffffffffffffffffff0382111561195657611955611ab4565b5b828201905092915050565b600061196c826119ed565b9150611977836119ed565b9250817fffffffffffffffffffffffffffffffffffffffffffffffffffffffffffffffff04831182151516156119b0576119af611ab4565b5b828202905092915050565b60006119c6826119cd565b9050919050565b600073ffffffffffffffffffffffffffffffffffffffff82169050919050565b6000819050919050565b82818337600083830152505050565b60005b83811015611a24578082015181840152602081019050611a09565b83811115611a33576000848401525b50505050565b60006002820490506001821680611a5157607f821691505b60208210811415611a6557611a64611ae3565b5b50919050565b6000611a76826119ed565b91507fffffffffffffffffffffffffffffffffffffffffffffffffffffffffffffffff821415611aa957611aa8611ab4565b5b600182019050919050565b7f4e487b7100000000000000000000000000000000000000000000000000000000600052601160045260246000fd5b7f4e487b7100000000000000000000000000000000000000000000000000000000600052602260045260246000fd5b7f4e487b7100000000000000000000000000000000000000000000000000000000600052604160045260246000fd5b6000601f19601f8301169050919050565b611b5b816119bb565b8114611b6657600080fd5b50565b611b72816119ed565b8114611b7d57600080fd5b5056fea2646970667358221220921579c098ba306a61487b02e77e98af17b5ff7f1b0d19ea6bb736ab65cef5b564736f6c63430008000033",
  "immutableReferences": {},
  "source": "// SPDX-License-Identifier: MIT\npragma solidity ^0.8.0;\n\ncontract registration {\n    struct Crop {\n        string name;\n        uint256 area;\n        string district;\n    }\n\n    mapping(address => Crop) public fasal;\n    Crop[] public upaj;\n\n    mapping(string => mapping(string => uint256)) public totalAreaByDistrict;\n\n    string[] public haryanaDistricts = [\n        \"Ambala\",\n        \"Bhiwani\",\n        \"Charkhi Dadri\",\n        \"Faridabad\",\n        \"Fatehabad\",\n        \"Gurugram\",\n        \"Hisar\",\n        \"Jhajjar\",\n        \"Jind\",\n        \"Kaithal\",\n        \"Karnal\",\n        \"Kurukshetra\",\n        \"Mahendragarh\",\n        \"Nuh\",\n        \"Palwal\",\n        \"Panchkula\",\n        \"Panipat\",\n        \"Rewari\",\n        \"Rohtak\",\n        \"Sirsa\",\n        \"Sonipat\",\n        \"Yamunanagar\"\n    ];\n\n    address public owner;\n\n    modifier onlyOwner() {\n        require(msg.sender == owner, \"Only the owner can call this function\");\n        _;\n    }\n\n    constructor() {\n        owner = msg.sender;\n    }\n\n    function registerCrop(\n        string memory _name,\n        uint256 _area,\n        string memory _district\n    ) public {\n        require(\n            keccak256(abi.encodePacked(_name)) ==\n                keccak256(abi.encodePacked(\"wheat\")),\n            \"Only wheat crops can be registered\"\n        );\n\n        bool isValidDistrict = false;\n        for (uint256 i = 0; i < haryanaDistricts.length; i++) {\n            if (\n                keccak256(bytes(haryanaDistricts[i])) ==\n                keccak256(bytes(_district))\n            ) {\n                isValidDistrict = true;\n                break;\n            }\n        }\n        require(\n            isValidDistrict == true,\n            \"Invalid district. Please provide a valid district from Haryana\"\n        );\n\n        Crop memory newCrop = Crop(_name, _area, _district);\n        fasal[msg.sender] = newCrop;\n        upaj.push(newCrop);\n        totalAreaByDistrict[_district][_name] += _area;\n    }\n\n    function getTotalAreaByDistrict(\n        string memory _district,\n        string memory _name\n    ) public view returns (uint256) {\n        return totalAreaByDistrict[_district][_name];\n    }\n\n    function estimateTotalProduce(string memory _name)\n        public\n        view\n        returns (uint256)\n    {\n        uint256 totalArea = 0;\n        for (uint256 i = 0; i < upaj.length; i++) {\n            if (keccak256(bytes(upaj[i].name)) == keccak256(bytes(_name))) {\n                totalArea += upaj[i].area;\n            }\n        }\n        return totalArea * 24;\n    }\n\n    function estimateProduce(string memory _district, string memory _name)\n        public\n        view\n        returns (uint256)\n    {\n        uint256 totalArea = totalAreaByDistrict[_district][_name];\n        if (keccak256(bytes(_district)) == keccak256(bytes(\"Hisar\"))) {\n            return totalArea * 22;\n        } else if (\n            keccak256(bytes(_district)) == keccak256(bytes(\"Panchkula\"))\n        ) {\n            return totalArea * 22;\n        } else if (\n            keccak256(bytes(_district)) == keccak256(bytes(\"Yamunanagar\"))\n        ) {\n            return totalArea * 22;\n        } else if (keccak256(bytes(_district)) == keccak256(bytes(\"Ambala\"))) {\n            return totalArea * 22;\n        } else if (keccak256(bytes(_district)) == keccak256(bytes(\"Jhajjar\"))) {\n            return totalArea * 22;\n        } else if (\n            keccak256(bytes(_district)) == keccak256(bytes(\"Gurugram\"))\n        ) {\n            return totalArea * 22;\n        } else if (keccak256(bytes(_district)) == keccak256(bytes(\"Rewari\"))) {\n            return totalArea * 22;\n        } else if (keccak256(bytes(_district)) == keccak256(bytes(\"Rohtak\"))) {\n            return totalArea * 22;\n        } else if (keccak256(bytes(_district)) == keccak256(bytes(\"Palwal\"))) {\n            return totalArea * 22;\n        } else if (keccak256(bytes(_district)) == keccak256(bytes(\"Jind\"))) {\n            return totalArea * 22;\n        } else if (\n            keccak256(bytes(_district)) == keccak256(bytes(\"Fatehabad\"))\n        ) {\n            return totalArea * 22;\n        } else if (\n            keccak256(bytes(_district)) == keccak256(bytes(\"Mahendragarh\"))\n        ) {\n            return totalArea * 22;\n        } else if (\n            keccak256(bytes(_district)) == keccak256(bytes(\"Kurukshetra\"))\n        ) {\n            return totalArea * 25;\n        } else if (keccak256(bytes(_district)) == keccak256(bytes(\"Karnal\"))) {\n            return totalArea * 25;\n        } else if (keccak256(bytes(_district)) == keccak256(bytes(\"Panipat\"))) {\n            return totalArea * 25;\n        } else if (keccak256(bytes(_district)) == keccak256(bytes(\"Sonipat\"))) {\n            return totalArea * 25;\n        } else if (\n            keccak256(bytes(_district)) == keccak256(bytes(\"Faridabad\"))\n        ) {\n            return totalArea * 25;\n        } else if (keccak256(bytes(_district)) == keccak256(bytes(\"Kaithal\"))) {\n            return totalArea * 25;\n        } else if (keccak256(bytes(_district)) == keccak256(bytes(\"Nuh\"))) {\n            return totalArea * 20;\n        } else if (keccak256(bytes(_district)) == keccak256(bytes(\"Bhiwani\"))) {\n            return totalArea * 17;\n        } else if (\n            keccak256(bytes(_district)) == keccak256(bytes(\"Charkhi Dadri\"))\n        ) {\n            return totalArea * 17;\n        } else if (keccak256(bytes(_district)) == keccak256(bytes(\"Sirsa\"))) {\n            return totalArea * 24;\n        } else {\n            return 0;\n        }\n    }\n}",
  "sourcePath": "C:\\Users\\Shreya Sheoran\\Downloads\\Agriculture\\contracts\\cropregistration.sol",
  "compiler": {
    "name": "solc",
    "version": "0.8.0+commit.c7dfd78e.Emscripten.clang"
  },
  "schemaVersion": "3.4.12",
  "updatedAt": "2023-05-04T05:29:40.914Z",
  "devdoc": {
    "kind": "dev",
    "methods": {},
    "version": 1
  },
  "userdoc": {
    "kind": "user",
    "methods": {},
    "version": 1
  }
}